:020000000528D1
:100008002A280720392821000C1423000C14240066
:100018000C10210001309D0040309E000F309F00E1
:1000280021006E309900003098002000313098008F
:10003800C0308B0021004130910020000030A0002A
:1000480021000030A0000030A10008002000111895
:100058003020111B3520090021009D1420001110AB
:1000680008002014200011130800200020183D204B
:10007800392821001C08A1001B08A0002010080036
:020000040001F9
:04000E00A43FFF1EEE
:00000001FF
