:020000000528D1
:1000080041280720832821000C148C140D16230086
:100018000C148C140D1624000C100D120020210055
:1000280021008E118E120E160F100F128F1224003F
:100038000230950014131516951620000F168F160A
:100048000F1421006E3099000030980020003130E4
:100058009800C0308B00210049309100200000300A
:10006800A000A1001030A20024000030A000A500CC
:10007800A100A200A300A4000800200091194B20B1
:100088002000111864202000111B6B200900911119
:10009800240020185628A5185B28201A602820005C
:1000A80020170800210891002000A0160800110858
:1000B80091002000A114080020122000201608003A
:1000C8001110A20B080020141030A2000800111310
:1000D800A0187128201977287D2821001C08A10064
:1000E8001B08A000080021001C08A3001B08A20090
:1000F800080021001C08A5001B08A4000800200017
:1001080020189F202000A018AA2020002019B52020
:100118002000A019C0202000201AC8202000A01A02
:10012800D7202000201B4221200021185021200028
:10013800A1185B21832821009D18080001309D002B
:10014800BE209D1420002010A014080021009D1836
:1001580008002D309D00BE209D142000A010201501
:10016800080021009D180800BE209D1420002011C1
:10017800A015080000000800A01120000F1024009E
:10018800063091002016080020000F14000000001F
:1001980000000F102400023091002014A015200048
:1001A800A01620120800A0122400A5182629DC2871
:1001B800A018E8282019ED28A019F228A01AF72875
:1001C800201B0729201008002208A100A010A01653
:1001D80008002308A1002011A01408002408A10089
:1001E800A01120150800251C012925102100200830
:1001F8002400A100A01220170800251421002108BE
:100208002400A1000800251C11292510210022081E
:100218002400A1002013A01708002514210023089A
:100228002400A1000800251C2029251021002408ED
:100238002400A100A013080025142100250824008B
:10024800A10008002400A018302920193529A01978
:100258003A29A01A3F290800A0100030A100A016D2
:10026800080020110030A100A0140800A0110030DF
:10027800A10020150800A0122010080020130F1458
:1002880024002519080048290830A2070030A33D9A
:10029800A43D20002114080021100F102400A514EB
:1002A800033091002014A0152000A0160800A1100A
:1002B8002400251962291108A51008002511080035
:020000040001F9
:04000E00A43FFF1EEE
:0CE00000210040309E000F309F000800FF
:00000001FF
