:020000000528D1
:1000080042280720822821000C148C140D16230086
:100018000C148C140D1624000C100D122100403005
:100028009E000F309F0021008C128E118E120E162A
:100038000F128F12240014133230950020000F166F
:100048008F1621006E309900003098002000313062
:100058009800C0308B00210049309100200000300A
:10006800A000A1001030A20024000030A000A100D0
:10007800A200A300A400A500A60008002000911972
:100088004C202000111863202000111B6A20090051
:100098009111240020185728A5185C28201A5F28D9
:1000A800200020170800210891002000A016080051
:1000B8002000A114080020122000201608001110AA
:1000C800A20B080020141130A20008001113A01878
:1000D8007028201976287C2821001C08A1001B08FC
:1000E800A000080021001C08A3001B08A2000800AB
:1000F80021001C08A5001B08A400080020002018E7
:100108009E202000A018A92020002019B42020003B
:10011800A019BF202000201AC9202000A01AD8202A
:100128002000201B27212000211835212000A1189C
:100138005C21822821009D18080001309D00BD2007
:100148009D142000A0142010080021009D1808000C
:100158002D309D00BD209D1420002015A010080002
:1001680021009D180800BD209D142000A015201115
:1001780008000000080020008C12240006309100BE
:1001880020162000A0112008080020008C1600006E
:10019800000000008C122400023091002014A015E9
:1001A8002000A01620120800A0122400A51840293B
:1001B800DD28A018E9282019EE28A019F328A01A8C
:1001C800F828201B0829201008002208A100A010E8
:1001D800A01608002308A1002011A0140800240874
:1001E800A100A01120150800251C022925102100B6
:1001F80020082400A100A0122017080025142100BF
:1002080021082400A1000800251C1229251021001E
:1002180022082400A1002013A0170800251421009B
:1002280023082400A1000800251C212925102100ED
:1002380024082400A100A013080025142100250883
:100248002400A1000800200020138C162400251982
:1002580008000830A2070030A33DA43D2000211467
:10026800080021108C122400A514033091002014DA
:10027800A0152000A01608002400A0184A2920195B
:100288004F29A0195429A01A592908000030A100A3
:10029800A010A01608000030A1002011A01408002A
:1002A8000030A100A01120150800A012201008009D
:1002B800A1102400251963291108A510080025118B
:0202C80008002C
:020000040001F9
:04000E00A43FFF1EEE
:00000001FF
