:020000000528D1
:100008002A2807204F2821000C148C140D162300D1
:100018000C148C140D1624000C100D122100403005
:100028009E000F309F0021006E309900003098002C
:10003800200031309800C0308B0021004130910001
:1000480020000030A0000A30A1000800200011188C
:100058003020111B372009001110A10B08002014B3
:100068001A30A10008001113A0183D2820194328B0
:10007800492821001C08A1001B08A0000800210035
:100088001C08A3001B08A200080021001C08A500EA
:100098001B08A40008002000201859202000A018E0
:1000A8006420200020196F204F2821009D18080087
:1000B80001309D0077209D142000A0142010080016
:1000C80021009D1808002D309D0077209D142000E8
:1000D8002015A010080021009D18080077209D1405
:0A00E80020002011080000000800AD
:020000040001F9
:04000E00A43FFF1EEE
:00000001FF
