:020000000528D1
:1000080046280720842821000C148C140D16230080
:100018000C148C140D1624000C100D122100403005
:100028009E000F309F0021008C128E118E120E162A
:100038000F128F12240014133A3095008F3092005B
:1000480020000F128F128C1621006E30990000309C
:100058009800200031309800C0308B0021004930D2
:10006800910020000030A000A1001030A200A117CC
:1000780024000030A000A100A200A300A400A50055
:10008800A6000800200091195020200011186520B2
:100098002000111B6C20090091112400A5185C2870
:1000A800200020170800210891002000A016080051
:1000B800110891002000A114080020122000201629
:1000C80008001110A20B080020141130A20008002B
:1000D8001113A0187228201978287E2821001C08DE
:1000E800A1001B08A000080021001C08A3001B0891
:1000F800A200080021001C08A5001B08A400080095
:1001080020002018A6202000A018B12020002019C7
:10011800BC202000A019C7202000201AD1202000D0
:10012800A01AE0202000201B2F21200021183E21AA
:100138002000A11865212000211B6E212000A11B91
:100148007421842821009D18080001309D00C520D5
:100158009D142000A0142010080021009D180800FC
:100168002D309D00C5209D1420002015A0100800EA
:1001780021009D180800C5209D142000A0152011FD
:1001880008000000080020008C12240006309100AE
:1001980020162000A0112008080020008C1600005E
:1001A800000000008C122400023091002014A015D9
:1001B8002000A01620120800A0122400A518492922
:1001C800E528A018F1282019F628A019FB28A01A5C
:1001D8000029201B1029201008002208A100A010C7
:1001E800A01608002308A1002011A0140800240864
:1001F800A100A01120150800251C0A29251021009E
:1002080020082400A100A0122017080025142100AE
:1002180021082400A1000800251C1A292510210006
:1002280022082400A1002013A0170800251421008B
:1002380023082400A1000800251C292925102100D5
:1002480024082400A100A013080025142100250873
:100258002400A1000800200020138C16A1172400F8
:10026800251908000830A2070030A33DA43D20004E
:100278002114080021108C122400A51403309100C9
:100288002014A0152000A01608002400A018532947
:1002980020195829A0195D29A01A622908000030E0
:1002A800A100A010A01608000030A1002011A01481
:1002B80008000030A100A01120150800A01220108D
:1002C8000800A110240025196C291108A5100800A0
:1002D8002511080021138C12240006309100080013
:1002E800A1132400A514251520008C1224007030B9
:0402F8009100080069
:020000040001F9
:04000E00A43FFF1EEE
:00000001FF
