:020000000528D1
:1000080044280720862821000C148C140D16230080
:100018000C148C140D1624000C100D122100403005
:100028009E000F309F0021008E118E120E160F10A9
:100038000F128F122400023095001413151695160E
:1000480020000F168F160F1421006E309900003013
:100058009800200031309800C0308B0021004930D2
:10006800910020000030A000A1001030A200240060
:100078000030A000A500A100A200A300A400080071
:10008800200091194E202000111867202000111B14
:100098006E2009009111240020185928A5195E28FE
:1000A800201A63282000201708002108910020004A
:1000B800A0160800110891002000A11408002012C1
:1000C8002000201608001110A20B08002014103080
:1000D800A20008001113A018742820197A28802873
:1000E80021001C08A1001B08A000080021001C0812
:1000F800A3001B08A200080021001C08A5001B087B
:10010800A400080020002018A2202000A018AD207C
:1001180020002019B8202000A019C3202000201A90
:10012800CB202000A01ADA202000201B422120002A
:10013800211852212000A1185E21862821009D182F
:10014800080001309D00C1209D1420002010A0143B
:10015800080021009D1808002D309D00C1209D1425
:100168002000A0102015080021009D180800C120BB
:100178009D1420002011A015080000000800A011FF
:1001880020000F10240006309100201608002000DF
:100198000F140000000000000F102400023091002E
:1001A8002014A0152000A01620120800A012240078
:1001B800A5182929DF28A018EB282019F028A0194C
:1001C800F528A01AFA28201B0A292010080022085E
:1001D800A100A010A01608002308A1002011A01457
:1001E80008002408A100A01120150800251C0429D6
:1001F8002510210020082400A100A01220170800C3
:100208002514210021082400A1000800251C142918
:100218002510210022082400A1002013A01708009F
:100228002514210023082400A1000800251C2329E7
:100238002510210024082400A100A013080025147B
:10024800210025082400A10008002400A018332953
:1002580020193829A0193D29A01A20100800A0103B
:100268000030A100A016080020110030A100A01441
:100278000800A0110030A1002015080020130F1459
:100288002400A51848294A29A51008000830A20703
:100298000030A33DA43D20002114080021100F10B8
:1002A8002400A515A514033091002014A0152000E2
:1002B800A0160800A1102400251965291108A51108
:0602C800080025110800EA
:020000040001F9
:04000E00A43FFF1EEE
:0CE00000210040309E000F309F000800FF
:00000001FF
