:020000000528D1
:1000080031280720542821008C128E118E120E16CA
:100018000F128F12023095008F30920024001413B3
:100028001516951620000F128F128C1621006E30AF
:10003800990000309800200031309800C0308B00C3
:1000480021004930910020000030A000A1001030AC
:10005800A20024000030A0000800200091193820D8
:100068002000111845200900911124002008A00B38
:100078004028200020140800110891002000911544
:1000880008001110A20B080021184F282114A014F1
:100098001030A2000800201521101230A20008001C
:1000A8002000201861202000A018642020002019BA
:1000B8006E202000A0197820542820108C160800E3
:1000C800A0108C122400063091000130A0002000FE
:1000D8009115080020118C1224000530910002307F
:1000E800A000200091150800A0118C122400703087
:0800F80091000330A000080094
:020000040001F9
:04000E00A43FFF1EEE
:00000001FF
