:020000000528D1
:1000080031280720522821008E118E120E160F104B
:100018000F128F122400023095008F3092001413B3
:100028001516951620000F128F120F1421006E302E
:10003800990000309800200031309800C0308B00C3
:1000480021004930910020000030A000A1001030AC
:10005800A20024000030A0000800200091193820D8
:100068002000111843200900911124002008A00B3A
:1000780040282000201408001108910008001110E1
:10008800A20B080021184D282114A0141030A2003A
:100098000800201521101230A200080020002018A6
:1000A8005F202000A0186220200020196B2020006B
:1000B800A0197420522820100F140800A0100F1047
:1000C8007C202400063091000130A0000800201197
:1000D8000F107C202400703091000230A00008002E
:1000E800A0110F102400703091000330A000080008
:1000F80000000000000000000000000000000000F8
:080108000000000000000000EF
:020000040001F9
:04000E00A43FFF1EEE
:00000001FF
