:020000000528D1
:10000800312807204F2821008C128E118E120E16CF
:100018000F128F12023095008F30920024001413B3
:100028001516951620000F128F128C1621006E30AF
:10003800990000309800200031309800C0308B00C3
:1000480021004930910020000030A000A1001030AC
:10005800A20024000030A0000800200091193820D8
:10006800200011184220090091112400A00B3F28FC
:100078002000201408001108910008001110A20B9C
:10008800080021184B28A0141030A20008002015E1
:100098001230A2000800200020185C202000A018C0
:1000A8005F202000201967202000A0196F204F280A
:1000B80020108C160800A0108C1224000630910025
:1000C8000130A000080020118C1224000530910096
:1000D8000230A0000800A0118C122400703091009A
:0600E8000330A000080037
:020000040001F9
:04000E00A43FFF1EEE
:00000001FF
