:020000000528D1
:10000800292807207B2821006E30990000309800AD
:1000180023001E129E161D161E159F1500309C00EB
:1000280008309B009D172000313098002000C03018
:100038008B0021002130910022000030A000A10097
:10004800A50023000430A000080020001118362065
:100058002000911A3E202100111E35282000111A77
:100068006620090011102300A00B080023000430AB
:10007800A000080021000408A1000508A200230030
:1000880019082100A00022002008053E84009030B5
:100098008500120021002002031D5D2812000319AB
:1000A80058282200A00F5C28220021140030A0004C
:1000B800602822000030A0002100210884002208C6
:1000C80085000800220022088500230825078400EF
:1000D8002300003F9A002200A50F000025082402F3
:1000E800031D08000030A5002100111208007D2022
:1000F8007B282200211C08009030A2000030A300B9
:0C0108000530A400211021001116080091
:10200000480045004C004F000A00470045005400BE
:022010000000CE
:020000040001F9
:04000E00A43FFF1EEE
:00000001FF
