:020000000528D1
:1000080049280720562821000C148C140D162300AB
:100018000C148C140D1624000C100D122100403005
:100028009E000F309F0021008C128E118E120E162A
:100038000F128F12240014133A3095008F3092005B
:1000480020000F128F128C1623001E139E161E12EC
:100058009D1721006E309900003098002000313043
:100068009800C0308B0021004930910020000030FA
:10007800A000A1001030A20024000030A000A500BC
:10008800A100A200A300A4000800200011184D2020
:1000980009001110A20B080023002A309A00103022
:0600A800A200080056282A
:020000040001F9
:04000E00A43FFF1EEE
:00000001FF
