:020000000528D1
:10000800292807207B2821006E30990000309800AD
:1000180023001E129E161D161E159F1500309C00EB
:1000280008309B009D172000313098002000C03018
:100038008B0021002130910022000030A000A10097
:10004800A50023001030A000080020001118362059
:100058002000911A3D202100111E35282000111A78
:100068006520090011102300A00B08001030A00023
:10007800080021000408A1000508A20023001908AF
:100088002100A00022002008043E84009030850052
:10009800120021002002031D5C28120003195728B2
:1000A8002200A00F5B28220021140030A0005F2846
:1000B80022000030A00021002108840022088500C9
:1000C80008002200A2088500A30825078400230051
:1000D800003F9A002200A50F0000A5082402031D76
:1000E80008000030A50021102100111208007D2011
:1000F8007B282200211C08009030A2000030A300B9
:0A0108000430A400210011160800C5
:0E200000480045004C004F00470045005400CA
:020000040001F9
:04000E00A43FFF1EEE
:00000001FF
